:020000040800F2
:1000000028370020CD010008492F00084B2F000899
:100010004F2F0008532F0008572F00080000000042
:100020000000000000000000000000005B2F00083E
:100030005D2F000800000000E30100085F2F0008AA
:10004000E7010008E7010008E7010008E7010008F0
:10005000E7010008E7010008E7010008E7010008E0
:10006000E7010008E7010008E7010008E3340008A1
:10007000FB340008E7010008E7010008E701000879
:10008000E7010008E7010008E7010008E7010008B0
:10009000E7010008E7010008E7010008E7010008A0
:1000A000E7010008E7010008E7010008E701000890
:1000B000E7010008E7010008E7010008E701000880
:1000C000E7010008E7010008E7010008E701000870
:1000D000E70100089B2F0008A5310008CF33000876
:1000E000E7010008E7010008E7010008E701000850
:1000F000E7010008E7010008E7010008E701000840
:10010000E7010008E7010008E7010008E70100082F
:10011000E7010008E7010008E9330008E7010008EB
:10012000E7010008E7010008E7010008E70100080F
:1001300000F002F800F03AF80AA090E8000C8244BF
:100140008344AAF10107DA4501D100F02FF8AFF29C
:10015000090EBAE80F0013F0010F18BFFB1A43F0A5
:100160000103184770CE000090CE0000103A24BF63
:1001700078C878C1FAD8520724BF30C830C144BF0C
:1001800004680C607047000000230024002500264E
:10019000103A28BF78C1FBD8520728BF30C148BFEA
:1001A0000B6070471FB51FBD10B510BD0CF022FDD0
:1001B0001146FFF7F7FF02F07FFE0CF040FD03B49D
:1001C000FFF7F2FF03BC0BF013FD00000948804766
:1001D00009480047FEE7FEE7FEE7FEE7FEE7FEE729
:1001E000FEE7FEE7FEE7FEE704480549054A064B41
:1001F000704700001B36000831010008282D002040
:1002000028370020282F0020282F002031490143C3
:10021000314A1160704770B5002100230F22C47865
:1002200004B32D4C246804F4E064C4F5E064210AAE
:10023000C1F10403CA40447804FA03F184781440FD
:1002400021430901254C0678A155047804F01F05C7
:100250000124AC4005786D11AD0005F1E025C5F82D
:10026000004109E0047804F01F050124AC401C4D56
:100270000678761145F8264070BD1A4A0A400243B6
:10028000154B1B1F1A60704739B1134A121D1268B3
:100290000243114B1B1D1A6006E00F4A121D126823
:1002A00082430D4B1B1D1A607047042808D14FF084
:1002B000E021096941F004014FF0E022116107E0FB
:1002C0004FF0E021096921F004014FF0E0221161B3
:1002D000704700000000FA050CED00E000E400E0CB
:1002E00080E100E080FFFF1F10B50446FA48844219
:1002F00008D10121401501F083FC0021601501F0B7
:100300007FFC17E0F548844208D10121001501F077
:1003100077FC0021201501F073FC0BE0F0488442CB
:1003200008D10121C80301F06BFC00214FF400400B
:1003300001F066FC10BD30B5024600200023506875
:10034000E84C20400D790C6844EA052420435060B5
:100350009068E54C2040D1E902542C434D7944EAA1
:10036000450420439060D06A20F470000C7C641E29
:10037000E4B2234340EA0350D06230BD0021016063
:10038000017141718160C16001210174704721B127
:10039000826842F00102826003E0826822F001027A
:1003A0008260704721B1826842F48072826003E00B
:1003B000826822F480728260704710B50023CBB24D
:1003C0001AB144681C43446002E044689C434460A2
:1003D00010BD816841F0080181607047014600202E
:1003E0008A6802F008020AB1012000E0002070478C
:1003F000816841F0040181607047014600208A68ED
:1004000002F004020AB1012000E00020704721B18F
:10041000826842F4A002826003E0826822F4A002B3
:1004200082607047014600208A6802F480020AB1A7
:10043000012000E00020704710B50A46002100238B
:10044000416821F46041531E41EA4331416010BDCF
:1004500021B1426842F40062426003E0426822F443
:10046000006242607047F0B504460D46002000214E
:10047000092D11DDE068A5F10A0606EB46070726FF
:1004800006FA07F18843A5F10A0606EB460603FAC9
:1004900006F10843E0600CE0206905EB45070726FC
:1004A00006FA07F1884305EB450603FA06F108430F
:1004B0002061072A0FDA606B561E06EB86071F269F
:1004C00006FA07F18843561E06EB860605FA06F182
:1004D0000843606322E00D2A0FDA206BD61F06EB7B
:1004E00086071F2606FA07F18843D61F06EB860605
:1004F00005FA06F10843206310E0E06AA2F10D0658
:1005000006EB86071F2606FA07F18843A2F10D06BF
:1005100006EB860605FA06F10843E062F0BD21B15C
:10052000826842F48012826003E0826822F48012C2
:10053000826070470146C86C80B2704766484C3094
:100540000068704721B1426842F48062426003E073
:10055000426822F480624260704721B1426842F4EE
:100560008052426003E0426822F480524260704749
:100570000A460021816821F4E041114381607047FF
:1005800021B1826842F40042826003E0826822F472
:1005900000428260704721B1826842F40212826098
:1005A00003E0826822F40212826070470146002054
:1005B0008A6802F400120AB1012000E000207047AE
:1005C000F0B504461546002000220026092911DD59
:1005D000E068A1F10A0707EB470C072707FA0CF2BE
:1005E0009043A1F10A0707EB470703FA07F210430C
:1005F000E0600CE0206901EB410C072707FA0CF2E0
:10060000904301EB410703FA07F210432061A06B0E
:10061000C0F30156EF1C06F1010CA7EB0C0707EB2A
:10062000870C1F2707FA0CF29043EF1C06F1010C10
:10063000A7EB0C0707EB870701FA07F21043A0634B
:10064000F0BD10B50A4600210023816B21F4401152
:10065000531E41EA0351816310BD08B50023009386
:100660000090009B0B440093009B1A6008BD08B5E6
:10067000024600200090009201F12800009B1844DF
:1006800000900098006880B208BD0A4600214168C9
:10069000164B1940114341607047416282627047B6
:1006A0000A460021416821F01F0111434160704753
:1006B00040B109490831096841F40001064A08328D
:1006C000116007E004490831096821F40001024A79
:1006D00008321160704700000024014000280140EA
:1006E000003C0140FFFEF0FFFDF7F1FFFFFD3FFF83
:1006F0000246002013680B400BB1012000E00020EF
:100700007047CA430260704770B50246002000235C
:1007100000240B125568CEB205EA060415681D4088
:1007200015B10CB1012000E0002070BD00220A12BA
:10073000D34303607047000001684FF6FE7211401A
:1007400001600021016041608160C1608D49884283
:1007500008D18C490839496841F00F01894A083AA3
:1007600051608AE087491431884208D185490839A7
:10077000496841F0F001834A083A51607DE08149BF
:100780002831884208D17F490839496841F47061AD
:100790007C4A083A516070E07A493C31884208D17D
:1007A00078490839496841F47041764A083A5160FD
:1007B00063E074495031884208D172490839496868
:1007C00041F470216F4A083A516056E06D49643136
:1007D000884208D16B490839496841F47001694A77
:1007E000083A516049E067497831884208D1654943
:1007F0000839496841F07061624A083A51603CE04A
:100800006149884206D1011F096841F00F01021FAA
:10081000116032E05C491431884208D15A49091FFD
:10082000096841F0F001584A121F116025E056494D
:100830002831884208D15449091F096841F4706180
:10084000514A121F116018E04F493C31884208D1CB
:100850004D49091F096841F470414B4A121F11604C
:100860000BE049495031884207D14749091F0968BF
:1008700041F47021444A121F1160704710B50022E4
:10088000026847F6F0739A430C6A8B6823430C693D
:1008900023434C6923438C692343CC6923434C6A2B
:1008A00023438C6A23431A430260CB6843600B687E
:1008B00083604B68C36010BD0021016041608160AE
:1008C000C160016141618161C16101624162816216
:1008D000704721B1026842F00102026004E0026840
:1008E0004FF6FE731A40026070471AB103680B435B
:1008F000036002E003688B43036070474160704708
:100900000146486880B2704701460020002201F08D
:1009100080531BB11C4B083B1A6802E0194B083B83
:100920001A6802EA01030BB1012000E000207047C1
:1009300000F0805119B11449091F086002E0114903
:1009400008394860704701460020002201F08053BA
:100950001BB10D4B083B1A6802E00A4B083B1A68B2
:1009600002EA01030BB1012000E00020704700F013
:10097000805119B10449091F086002E00149083992
:100980004860704708000240080402400146002009
:10099000FE4A106800F03800084310607047FB49B9
:1009A000096821F00801F94A1160114609680143FC
:1009B00011607047F549096821F01001F34A116090
:1009C00011460968014311607047F148EF494860DA
:1009D000F04848607047EE48EC494860ED48486090
:1009E0007047EA48006940F08000E84908617047B4
:1009F000E648006940F08000E4490861704704203F
:100A0000E249C96801F0010109B101200EE0DF49A6
:100A1000C96801F0040109B1022007E0DB49C96897
:100A200001F0100109B1032000E00420704700B577
:100A300002460423FFF7E3FF034603E0FFF7DFFF6F
:100A40000346521E012B01D1002AF7D102B905231A
:100A5000184600BD30B5044604254FF43020FFF79A
:100A6000E6FF0546042D17D1C848006940F0020092
:100A7000C649086108464461006940F040000861C9
:100A80004FF43020FFF7D3FF0546C048006941F618
:100A9000FD710840BD490861284630BD10B50424E9
:100AA0004FF43020FFF7C3FF0446042C16D1B7489B
:100AB000006940F00400B54908610846006940F04B
:100AC000400008614FF43020FFF7B1FF0446AF4803
:100AD000006941F6FB710840AC490861204610BD31
:100AE00000B502460423FFF78AFF034603E0FFF741
:100AF00086FF0346521E012B01D1002AF7D102B90D
:100B00000523184600BD10B504244FF43020FFF72C
:100B1000E7FF0446042C16D19C48006940F004000D
:100B20009A4908610846006940F0400008614FF4A6
:100B30003020FFF7D5FF04469448006941F6FB7169
:100B4000084092490861204610BD00208F49C969BC
:100B500001F0020109B1012000E00020704730B52A
:100B6000A5250424FFF7F1FF00B100254FF4302044
:100B7000FFF75DFF0446042C3AD18548834988601D
:100B8000844888600846006940F0200008610846F3
:100B9000006940F0400008614FF43020FFF747FF44
:100BA0000446042C1BD17948006941F6DF710840E6
:100BB000764908610846006940F0100008617648EF
:100BC0000580E002FFF733FF0446052C10D06F4884
:100BD000006941F6EF7108406C49086108E0052C96
:100BE00006D06A48006941F6EF710840674908611C
:100BF000204630BD78B506460C46042500200090FE
:100C0000E802FFF714FF0546042D24D15F48006970
:100C100040F001005D4908613480E802FFF707FFFA
:100C20000546042D10D1B01C0090200C00990880BE
:100C3000E802FFF7FCFE05465448006941F6FE71E4
:100C400008405249086106E05048006941F6FE71CB
:100C500008404E490861284678BD70B504460D46E7
:100C60000426F002FFF7E3FE0646042E11D14748A2
:100C7000006940F00100454908612580F002FFF756
:100C8000D6FE06464148006941F6FE7108403F49DC
:100C90000861304670BD70B505460E460424E0027A
:100CA000FFF7C5FE0446042C17D139483749886040
:100CB000384888600846006940F0100008612E80BE
:100CC000E002FFF7B4FE0446052C06D02F48006969
:100CD00041F6EF7108402D490861204670BD2DE9AD
:100CE000F04304464FF6FF763746B046B14604253A
:100CF000E443E6B2C4F30727C4F307484FEA146994
:100D0000E802FFF794FE0546042D49D120481F490B
:100D10008860204888600846006940F0100008613B
:100D2000FF2E06D01C4808300680E802FFF77FFE41
:100D30000546042D08D1FF2F06D017480A3007803A
:100D4000E802FFF774FE0546042D0AD1B8F1FF0F43
:100D500007D011480C30A0F80080E802FFF767FECA
:100D60000546042D0AD1B9F1FF0F07D00A480E300D
:100D7000A0F80090E802FFF75AFE0546052D0FD0B7
:100D80000248006941F6EF71084007E00020024088
:100D900023016745AB89EFCD00F8FF1F6649086165
:100DA0002846BDE8F08330B5054604244FF43020D2
:100DB000FFF73DFE0446042C41D160485E4988603F
:100DC0005F4888600846006940F0200008610846D6
:100DD000006940F0400008614FF43020FFF727FE23
:100DE0000446042C22D15448006941F6DF710840C2
:100DF000514908610846006940F0100008611DB1C2
:100E000000205049088002E0A5204E4908804FF498
:100E10003020FFF70CFE0446052C10D04648006930
:100E200041F6EF7108404449086108E0052C06D0FE
:100E30004148006941F6DF7108403F49086120469A
:100E400030BDF0B505460E46174604243B483A49E6
:100E500088603B488860E002FFF7E9FD0446042C07
:100E600019D13548006940F010003349086147F056
:100E7000F800304328433349891C0880E002FFF71B
:100E8000D6FD0446052C06D02B48006941F6EF71CB
:100E90000840294908612046F0BD2748C0698008FC
:100EA00070472548006A704700202349096801F00F
:100EB000200109B1012000E00020704729B11E4A3D
:100EC000126902431C4B1A6104E01B4A12698243F7
:100ED000194B1A61704701460020012908D1164AB2
:100EE000D26902F001020AB1012008E0002006E008
:100EF000114AD2680A400AB1012000E00020704780
:100F00000D49C860704704200B49C96801F0010110
:100F100009B101200EE00849C96801F0040109B1D6
:100F2000022007E00449C96801F0100109B103205B
:100F300000E00420704700000020024023016745C4
:100F4000AB89EFCD00F8FF1F30B943F2DB0281001F
:100F5000A1F1C0410A6005E043F2D2028100A1F193
:100F6000C0410A606FF07042411C8900A1F1C0418C
:100F70000A608100A1F1C041C1F804217047102826
:100F80000AD118214FF020421166402151664FF0DE
:100F9000FC319166D16610E01821F74A11604021BA
:100FA0004FF02042C2F884104FF0FC31F24A083270
:100FB00011604FF02042C2F88C1070471820EE49A3
:100FC0002031086000200906C1F8A4004FF0FC3071
:100FD000E94928310860091D0860091D086070474B
:100FE000D0E901121143C2681143026911434269F9
:100FF000114382691143C2691143026A1143426A73
:101000001143826A1143C26A1143026B11430268A1
:101010009200A2F1C0421160816808290BD10168D9
:101020008900A1F1C041096841F0400201688900CE
:10103000A1F1C0410A60416B0968426B526841EA04
:101040000211426B926841EA0221426B928941EAA5
:101050000241426B128A41EA0251426B127D41EA1F
:101060000261426B926911430268521C9200A2F124
:10107000C0421160C16AB1F5804F1BD1816B096814
:10108000826B526841EA0211826B926841EA022146
:10109000826B128A41EA0251826B127D41EA02613F
:1010A000826B9269114302689200A2F1C042C2F8B9
:1010B000041107E06FF0704201688900A1F1C0419E
:1010C000C1F80421704730B5002100220023446894
:1010D00044F0080485682C43C5682C4305692C43FB
:1010E000456944EA4524856944EA4531C469246870
:1010F000C5696D6844EA0524C5692D8944EA05443B
:10110000C5692D7B44EA0562046A2468056A6D6836
:1011100044EA0524056A2D8944EA0544056A2D7BC5
:1011200044EA05630468102C05D14FF02044216681
:10113000A266E36608E0904C21604FF02044C4F8BA
:1011400088208D4C0C34236030BD016841F01001C3
:10115000426841EA4221826841EA4231864A2032AD
:101160001160C1680968C268526841EA0221C26818
:10117000128941EA0241C268127B41EA02617E4A59
:1011800028321160016909680269526841EA022146
:101190000269128941EA02410269127B41EA026155
:1011A000754A2C321160416909684269526841EA06
:1011B00002214269128941EA02414269127B41EAF5
:1011C00002614FF02042C2F8B01070470021016068
:1011D0000221416000218160C16001614161816142
:1011E000C16101624FF48051416249008162002176
:1011F000C16201630F21426B1160426B5160FF219C
:10120000426B91600F21426BD160426B1161426B66
:1012100051610021426B91610F21826B1160826BE1
:101220005160FF21826B91600F21826BD160826BD4
:101230001161826B51610021826B916170471021B5
:101240000160002141608160C16001614161816193
:10125000FC21C2691160C2695160C2699160C269B2
:10126000D160026A1160026A5160026A9160026A8A
:10127000D16070470021016041608160FC21C2683B
:101280001160C2685160C2689160C268D160026931
:10129000116002695160026991600269D16042691E
:1012A000116042695160426991604269D160704742
:1012B00051B18200A2F1C042126842F001038200E3
:1012C000A2F1C042136009E08200A2F1C04212689C
:1012D0002A4B1A408300A3F1C0431A60704799B1AA
:1012E000102808D14FF02042126E42F004024FF055
:1012F00020431A661DE0204A126842F004024FF0B3
:101300002043C3F8802014E0102809D14FF0204278
:10131000126E1A4BDB1E1A404FF020431A6608E08B
:10132000154A1268154BDB1E1A404FF02043C3F8D4
:101330008020704748B110492031096841F004010C
:101340004FF02042C2F8A01009E00B492031096893
:101350000A4AD21E11404FF02042C2F8A010704736
:10136000B9B110280CD14FF02042126E42F0400269
:101370004FF020431A661FE0800000A0FEFF0F0020
:10138000724A126842F040024FF02043C3F88020B6
:1013900012E0102808D14FF02042126E6C4B1A4018
:1013A0004FF020431A6607E0684A1268684B1A40FB
:1013B0004FF02043C3F880207047014600201029D9
:1013C00003D14FF02042506F02E0604A143210689F
:1013D000704710B5F2B1102807D14FF020435B6E73
:1013E0000B434FF02044636632E0B0F5807F08D1B4
:1013F000564B1B1D1B680B434FF02044C4F8843030
:1014000026E0524B24331B680B434FF02044C4F8B2
:10141000A4301DE0102807D14FF020435B6E8B43B2
:101420004FF02044636613E0B0F5807F08D1474B4E
:101430001B1D1B688B434FF02044C4F8843007E029
:10144000424B24331B688B434FF02044C4F8A43034
:1014500010BD10B5024600200023102A03D14FF022
:101460002044636E09E0B2F5807F03D1374C241D20
:10147000236802E0354C2434236803EA01040CB1EC
:10148000012000E0002010BD102807D14FF02042BD
:10149000526E8A434FF020435A6613E0B0F5807FC6
:1014A00008D12A4A121D12688A434FF02043C3F81C
:1014B000842007E0254A243212688A434FF02043F3
:1014C000C3F8A420704770B5024600200023002412
:1014D0000025102A03D14FF02046736E09E0B2F5C3
:1014E000807F03D1194E361D336802E0174E243633
:1014F000336803EA010403EAD10514B10DB10120F8
:1015000000E0002070BD102808D14FF02042526E3C
:1015100022EAD1024FF020435A6615E0B0F5807FF1
:1015200009D10A4A121D126822EAD1024FF0204363
:10153000C3F8842008E0054A2432126822EAD10266
:101540004FF02043C3F8A42070470000800000A0A3
:10155000BFFF0F0010B50446CC48844208D10121DA
:10156000042000F04DFB0021042000F049FB46E080
:10157000C748844208D10121082000F041FB002126
:10158000082000F03DFB3AE0C248844208D1012126
:10159000102000F035FB0021102000F031FB2EE080
:1015A000BD48844208D10121202000F029FB002100
:1015B000202000F025FB22E0B848844208D1012118
:1015C000402000F01DFB0021402000F019FB16E038
:1015D000B348844208D10121802000F011FB002192
:1015E000802000F00DFB0AE0AE48844207D10121C3
:1015F000801500F005FB0021A01500F001FB10BDD7
:1016000010B50121084600F0FBFA0021012000F08E
:10161000F7FA10BD2DE9F041024600250026002012
:1016200000230024002791F803C00CF00F0591F867
:1016300003C00CF0100CBCF1000F03D091F802C0F5
:101640004CEA050591F800C0BCF1000F31D01468D8
:1016500000202BE04FF0010C0CFA00F3B1F800C0B1
:101660000CEA03069E4220D183004FF00F0C0CFAC7
:1016700003F7BC4305FA03FC4CEA040491F803C0E9
:10168000BCF1280F06D14FF0010C0CFA00FCC2F897
:1016900014C00AE091F803C0BCF1480F05D14FF027
:1016A000010C0CFA00FCC2F810C0401C0828D1D371
:1016B0001460B1F800C0BCF1FF0F34DD54680020A5
:1016C0002EE000F1080C4FF0010808FA0CF3B1F815
:1016D00000C00CEA03069E4221D183004FF00F0C9C
:1016E0000CFA03F7BC4305FA03FC4CEA040491F836
:1016F00003C0BCF1280F05D100F1080C08FA0CF862
:10170000C2F8148091F803C0BCF1480F07D100F172
:10171000080C4FF0010808FA0CF8C2F81080401CC1
:101720000828CED35460BDE8F0814FF6FF710180E8
:10173000022181700421C170704702460020936825
:101740000B400BB1012000E0002070470146886883
:1017500080B2704702460020D3680B400BB10120D5
:1017600000E0002070470146C86880B27047016100
:101770007047416170470AB1016100E04161704703
:10178000C16070474FF480320A4382618161826197
:1017900082698269704702460020434B18684FF601
:1017A0008073184040EA021008433F4B18607047AE
:1017B0003E49C8617047F0B50A4600230024002165
:1017C000002500F00046B6F1004F02D1364EF16917
:1017D00001E0354E7168C0F3034583B200F4401652
:1017E000B6F5401F08D121F070612F4E766826F0C3
:1017F00070662D4F7E6012E000F48016B6F5801FF3
:1018000006D1032606FA05F4A14341F0706106E013
:10181000460D360103FA06F6B14341F0706122B17C
:10182000460D360103FA06F6314300F00046B6F1E4
:10183000004F02D11C4EF16101E01B4E7160F0BD02
:1018400030B500228B071C0F0F2303FA04F2164B4E
:1018500008338C1053F824309343134C08348D1004
:1018600044F8253023468C1053F824308C07240F7D
:1018700000FA04F423430C4C08348D1044F825304E
:1018800030BD0A49DC3108607047000000080140A3
:10189000000C0140001001400014014000180140FC
:1018A000001C0140002001400000014000002042D7
:1018B0000E49086070470D49486070470B498860C1
:1018C00070474AF6AA200949086070474CF6CC4098
:1018D00006490860704701460020044AD2680A4061
:1018E0000AB1012000E000207047000000300040F5
:1018F000DF48006840F00100DD49086008464068A4
:10190000DC490840DA49486008460068DA4908407E
:10191000D74908600846006820F48020086008461F
:10192000406820F4FE0048604FF41F008860704754
:10193000CF49096821F48031CD4A11601146096808
:1019400021F480211160B0F5803F03D0B0F5802FE5
:101950000ED106E0C649096841F48031C44A1160DD
:1019600007E0C349096841F4A021C14A116000E0C1
:1019700000BF00BF704710B50146002200230020C1
:101980004A11012A02D1BA4C236806E0022A02D188
:10199000B74C236A01E0B64C636A01F01F020124D0
:1019A00094401C400CB1012000E0002010BD38B56F
:1019B000002000900024002500BF3120FFF7DBFF4E
:1019C00005460098401C00900098B0F5A06F01D02B
:1019D000002DF2D03120FFF7CEFF08B1012400E046
:1019E0000024204638BD01460020A14A106820F09E
:1019F000F80040EAC10010607047A04908607047D5
:101A0000024600209A4B586820F47C1042EA0103F9
:101A10001843974B586070479849086670470146CD
:101A20000020934A506820F003000843506070473C
:101A30008F48406800F00C007047014600208C4A37
:101A4000506820F0F00008435060704701460020C5
:101A5000874A506820F4E0600843506070470146B0
:101A60000020834A506820F4605040EAC100506072
:101A7000704729B17E4A527A02437D4B5A7204E084
:101A80007B4A527A82437A4B5A7270477B49D831EB
:101A90000860704701460020754A506820F44040B5
:101AA0000843506070470021714A20321170704A1B
:101AB00082F82010012802D004280AD104E0012174
:101AC0006B4A2032117005E00521694A20321170FD
:101AD00000E000BF00BF7047694908607047644973
:101AE000096A0143624A11627047654944390860D6
:101AF000704730B500210022002400235C4D6D6842
:101B000005F00C0121B1042905D0082923D105E0F5
:101B10005C4D056022E05B4D05601FE0544D6D6833
:101B200005F47012524D6D6805F48034022505EB02
:101B300092421CB9544D554305600BE04C4D6D6805
:101B400005F400351DB1504D5543056002E04D4D83
:101B50005543056002E04B4D056000BF00BF444D9A
:101B60006D6805F0F0010909484D6B5C0568DD40C2
:101B700045603F4D6D6805F4E061090A434D6B5CBB
:101B80004568DD4085603A4D6D6805F46051C90ACD
:101B90003E4D6B5C4568DD40C560354D6D6805F4B4
:101BA0004041890B3A4D6B5CC568B5FBF3F50561A7
:101BB00030BD29B12E4A526902432D4B5A6104E0CF
:101BC0002B4A526982432A4B5A61704729B1284AED
:101BD00092690243264B9A6104E0254A9269824346
:101BE000234B9A61704729B1214AD2690243204BA5
:101BF000DA6104E01E4AD26982431D4BDA61704704
:101C000029B11B4AD2680243194BDA6004E0184A32
:101C1000D2688243164BDA60704729B1144A1269C0
:101C20000243134B1A6104E0114A12698243104BBC
:101C30001A61704712494039086070470F49C864FB
:101C400070470B49C87170470948406A40F080707E
:101C500007494862704701460020054A92680A40D9
:101C60000AB1012000E000207047014988727047E6
:101C7000001002400000FFF8FFFFF6FE00004242A5
:101C80008004424200127A0000093D00000000205A
:101C90001000002010B50446FE48844208D10121FE
:101CA000C014FFF7ADFF0021E014FFF7A9FFC4E067
:101CB000B4F1804F08D101210846FFF7AEFF0021A3
:101CC0000120FFF7AAFFB8E0F348844208D10121C0
:101CD0000220FFF7A2FF00210220FFF79EFFACE0E9
:101CE000EE48844208D101210420FFF796FF00212D
:101CF0000420FFF792FFA0E0E948844208D10121C7
:101D00000820FFF78AFF00210820FFF786FF94E0F4
:101D1000E448844208D101211020FFF77EFF002112
:101D20001020FFF77AFF88E0DF48844208D10121C4
:101D30002020FFF772FF00212020FFF76EFF7CE0DC
:101D4000DA48844208D101214014FFF759FF0021ED
:101D50006014FFF755FF70E0D548844209D1012196
:101D6000C804FFF74DFF00214FF40020FFF748FFA4
:101D700063E0D048844209D101210805FFF740FF04
:101D800000214FF48010FFF73BFF56E0CA48844221
:101D900009D101214805FFF733FF00214FF400105E
:101DA000FFF72EFF49E0C548844208D101214020B9
:101DB000FFF733FF00214020FFF72FFF3DE0C04831
:101DC000844208D101218020FFF727FF00218020D5
:101DD000FFF723FF31E0BB48844208D10121801581
:101DE000FFF71BFF0021A015FFF717FF25E0B648FE
:101DF000844209D101210804FFF702FF00214FF4BA
:101E00008030FFF7FDFE18E0B048844209D101217F
:101E10004804FFF7F5FE00214FF40030FFF7F0FE15
:101E20000BE0AB48844208D101218804FFF7E8FEAB
:101E300000214FF48020FFF7E3FE10BD002202884E
:101E4000944B98420ED0994B98420BD0B0F1804FF2
:101E500008D0914B984205D0904B984202D0904BBD
:101E6000984204D14FF68F731A404B881A438D4B1A
:101E7000984207D08C4B984204D04FF6FF431A404B
:101E8000CB881A4302808B8883850B880385814B1E
:101E900098420BD0854B984208D08B4B984205D086
:101EA0008A4B984202D08A4B984201D10B7A038622
:101EB00001238382704770B5002400220023058C23
:101EC0004FF6FE7635400584028C8388048B4FF6EE
:101ED0008F752C40B51E2C400D882C43751E2A4052
:101EE0000D892A434D882A436A4DA8420BD06F4D75
:101EF000A84208D0744DA84205D0744DA84202D023
:101F0000734DA84213D14FF6F7752A404D892A43E5
:101F10004FF6FB752A408D882A434FF6FF652B400C
:101F20004FF6FF552B408D892B43CD892B43838062
:101F30000483CD888586028470BD70B5002400229C
:101F40000023058C4FF6EF7635400584028C83889C
:101F5000048B48F6FF752C404FF6FF452C400D884A
:101F60004FF6FF7606EA05252C434FF6DF752A402B
:101F70000D8906EA05152A434D8806EA05152A4308
:101F8000444DA84202D0494DA8421DD14FF67F755D
:101F90002A404D894FF6FF7606EA05152A434FF68B
:101FA000BF752A408D8806EA05152A434FF6FF358E
:101FB0002B404FF2FF752B408D8906EA85052B4398
:101FC000CD8906EA85052B4383800483CD88058768
:101FD000028470BD70B5002400220023058C4FF6EA
:101FE000FF6635400584028C8388848B4FF68F759D
:101FF0002C404FF6FC752C400D882C434FF6FF55B6
:102000002A400D894FF6FF7606EA05252A434D88BA
:1020100006EA05252A431F4DA84202D0234DA842B7
:102020001DD14FF2FF752A404D894FF6FF7606EA23
:1020300005252A434FF6FF352A408D8806EA0525F7
:102040002A434EF6FF752B404DF6FF752B408D89C8
:1020500006EA05152B43CD8906EA05152B43838037
:102060008483CD888587028470BD70B500220023EB
:102070000024058C4EF6FF7635400584038C848859
:10208000828B48F6FF752A404FF6FF452A400D889F
:1020900020E00000002C0140000400400008004047
:1020A000000C0040001000400014004000340140CB
:1020B000004C014000500140005401400018004015
:1020C000001C00400020004000400140004401404E
:1020D000004801404FF6FF7606EA05252A434DF6F3
:1020E000FF752B400D8906EA05352B434D8806EA1E
:1020F00005352B43FA4DA84202D0FA4DA84208D12B
:102100004BF6FF752C408D894FF6FF7606EA851554
:102110002C4384808283CD88A0F84050038470BD16
:10212000828B4FF2FF331A408283828B4FF6FF730C
:1021300003EA01231A4382837047F0B50C46154623
:10214000002200210026078C4EF6FF7C07EA0C07D0
:102150000784828B018C4FF6FF7707EA043640F63E
:10216000FF473A404FF6FF7707EA05273A434FF615
:10217000FF7707EA03373A43D94FB8420ED0D94F19
:10218000B8420BD0B0F1804F08D0D74FB84205D03D
:10219000D64FB84202D0D64FB84206D14DF6FF779F
:1021A000394046F48057394305E047F6FF57394038
:1021B00044F48057394382830184F0BD828B4FF60B
:1021C000F3731A408283828B0A4382837047F0B58F
:1021D0000C461546002200210026078C4FF6FF6CA6
:1021E00007EA0C070784828B018C4FF6FF7707EA1A
:1021F00004264FF60C773A404FF6FF7707EA0317AD
:102200002F433A43B64FB8420ED0B64FB8420BD028
:10221000B0F1804F08D0B44FB84205D0B34FB842A8
:1022200002D0B34FB84206D14FF6FF57394046F4BB
:102230008077394305E04FF2FF57394044F4807707
:10224000394382830184F0BD028B4FF2FF331A4081
:102250000283028B4FF6FF7303EA01231A430283C2
:102260007047F0B50C461546002200210026078C69
:102270004FF6EF7C07EA0C070784028B018C4FF6C0
:10228000FF7707EA041640F6FF473A404FF6FF771C
:1022900007EA03373A434FF6FF7707EA05273A4341
:1022A0008F4FB8420ED08F4FB8420BD0B0F1804F55
:1022B00008D08D4FB84205D08C4FB84202D08C4F19
:1022C000B84206D14FF6DF77394046F01007394360
:1022D00005E04FF65F77394044F010073943028339
:1022E0000184F0BD028B4FF6F3731A400283028B18
:1022F0000A4302837047F0B50C46154600220021C0
:10230000068C4FF6FE773E400684028B018C4FF61A
:102310000C7632407E1C06EA03162E433243704E82
:10232000B0420ED06F4EB0420BD0B0F1804F08D00B
:102330006D4EB04205D06D4EB04202D06C4EB042F0
:1023400006D14FF6FD76314044F00106314305E0F9
:102350004FF6F576314044F00106314302830184A3
:10236000F0BD70B505460C465D4885420ED05D480F
:1023700085420BD0B5F1804F08D05B48854205D02F
:102380005A48854202D05A48854200D100E000BF39
:10239000208850B92389A28861882846FFF7ABFFBF
:1023A000E1882846FFF79EFF25E0208804280AD10F
:1023B0002389A28861882846FFF753FFE1882846D1
:1023C000FFF742FF17E0208808280AD12389A28856
:1023D00061882846FFF7FBFEE1882846FFF7EEFEFE
:1023E00009E02389A28861882846FFF7A6FEE188D4
:1023F0002846FFF795FE70BD2DE9F04105460C46D5
:1024000000260127608808B9022600E00026A0887F
:10241000012801D1022700E001272088A0B92389E3
:10242000A28861882846FFF766FFE1882846FFF703
:1024300059FF23893A4631462846FFF712FFE188C3
:102440002846FFF701FF13E02389A2886188284608
:10245000FFF707FFE1882846FFF7F6FE23893A4693
:1024600031462846FFF747FFE1882846FFF73AFF45
:10247000BDE8F0810A884B881A438B881A43CB88C1
:102480001A430B891A434B891A438B891A43A0F8C4
:10249000442070474FF6FF71818000210180C18088
:1024A0004180017270470021018041808180C1809C
:1024B000018141818181C18170470021018041807A
:1024C000012181800021C1800181704700210180AC
:1024D00041808180C18001814181818170470000FC
:1024E000002C01400034014000040040000800407E
:1024F000000C004021B1028842F00102028004E099
:1025000002884FF6FE731A400280704731B1B0F86E
:10251000442042F40042A0F8442005E0B0F84420F2
:10252000C2F30E02A0F8442070471AB183890B430E
:10253000838102E083898B43838170478182704766
:1025400041EA0203A0F8483070471AB183890B436F
:10255000838102E083898B438381704701894FF631
:10256000F8721140018170470A46002101894FF637
:102570008F73194011430181704730B504460D46F1
:1025800029462046FFF7F0FF208940F00700208110
:1025900030BD2DE9F04104460D4616461F46602D1C
:1025A00006D13B46012231462046FFF75AFE05E0A0
:1025B0003B46012231462046FFF79DFE2946204634
:1025C000FFF7D2FF208940F007002081BDE8F081AD
:1025D00030B50C4600210189C9B24FF6FF7505EAF6
:1025E0000325154325432943018130BD2DE9F041E1
:1025F00005460E4617469846002443463A4631465D
:102600002846FFF7E5FF2C894FF6F870044044F0A8
:1026100007044FF68F70044044F070042C81BDE82D
:10262000F081F0B504460D4616461F463B4632463D
:1026300029462046FFF7CCFF208940F480402081C6
:10264000F0BD0185828270470A46002101884FF65D
:102650008F731940114301807047F0B50C46154641
:102660001E460021002200230189028B038C4FF6B5
:10267000F877394021434FF6FC473A4040F20117C2
:102680003A434FF6DD773B404FF6FF7707EA0617F0
:102690002F433B43018102830384F0BD0A4600219E
:1026A000018B4FF68F7319401143018370470A461F
:1026B0000021018B48F6FF7319404FF6FF7303EAC0
:1026C00002231943018370470A460021818B4FF68C
:1026D0008F7319401143818370470A460021818B13
:1026E00048F6FF7319404FF6FF7303EA02231943BC
:1026F0008183704721B1028842F08002028004E0A9
:1027000002884FF67F731A400280704721B1828899
:1027100042F00402828004E082884FF6FB731A4084
:102720008280704721B1828842F00802828004E0F2
:1027300082884FF6F7731A408280704721B18288F1
:1027400042F00102828004E082884FF6FE731A4054
:10275000828070470A460021018B4FF6F7731940BB
:102760001143018370470A460021018B4FF2FF732A
:1027700019404FF6FF7303EA0223194301837047A0
:102780000A460021818B4FF6F7731940114381836C
:1027900070470A460021818B4FF2FF7319404FF6B4
:1027A000FF7303EA02231943818370470A4600211D
:1027B000018B4FF6FB7319401143018370470A46A2
:1027C0000021018B4FF6FF3319404FF6FF7303EAE8
:1027D00002231943018370470A460021818B4FF67B
:1027E000FB7319401143818370470A460021818B96
:1027F0004FF6FF3319404FF6FF7303EA02231943E4
:10280000818370470A460021018B4FF67F73194080
:102810001143018370470A460021018BC1F30E0169
:102820004FF6FF7303EA02231943018370470A46F8
:102830000021818B4FF67F731940114381837047CC
:102840000A460021818BC1F30E014FF6FF7303EAA4
:1028500002231943818370470A460021018C4FF6F9
:10286000FD7319401143018470470A460021018C11
:102870004FF6F77319401143018470470A4600214F
:10288000018C4FF6DF7319404FF6FF7303EA021312
:102890001943018470470A460021018C4FF67F736B
:1028A00019404FF6FF7303EA02131943018470477E
:1028B0000A460021018C4FF6FF5319404FF6FF7373
:1028C00003EA02231943018470470A460021018C60
:1028D0004FF2FF7319404FF6FF7303EA02231943C7
:1028E000018470470A460021018C4DF6FF731940A0
:1028F0004FF6FF7303EA023319430184704730B582
:10290000002301248C40A3B2048C9C430484048CD7
:1029100002FA01F5ADB22C43048430BD30B500237A
:1029200004248C40A3B2048C9C430484048C02FADB
:1029300001F5ADB22C43048430BD70B503460020D0
:1029400000241846183001258D40ACB21D8CA543DB
:102950001D8409B1082909D100EB6100056825F043
:10296000700505600568154305600EE00D1FC5F391
:102970004E052844056825F4E045056005684FF6D6
:10298000FF7606EA02263543056070BD21B1028854
:1029900042F00202028004E002884FF6FD731A4002
:1029A0000280704721B1028842F00402028004E0F4
:1029B00002884FF6FB731A400280704721B182886B
:1029C00042F08002828004E082884FF67F731A40D2
:1029D0008280704702884FF6F7731A40028002889F
:1029E0000A430280704782884FF68F731A408280B4
:1029F00082880A438280704702894FF6F8731A4032
:102A0000028102890A430281704702894FF67F736F
:102A10001A40028102890A4302817047818470470B
:102A2000818570478186704701877047818770472D
:102A3000A0F84010704702884FF6FF431A4002800A
:102A400002880A43028070470146888E704701461B
:102A5000088F70470146888F70470146B1F84000E3
:102A600070470146888C70470146088D70470246C2
:102A70000020138A0B400BB1012000E000207047BA
:102A8000CA430282704730B502460020002300246A
:102A9000158A05EA0103958905EA010413B10CB111
:102AA000012000E0002030BDCA43028270470000D0
:102AB00010B50446FB48844209D101218803FFF781
:102AC0009FF800214FF48040FFF79AF832E0F64873
:102AD000844209D101214804FFF79FF800214FF4F7
:102AE0000030FFF79AF825E0F048844209D101212F
:102AF0008804FFF792F800214FF48020FFF78DF84B
:102B000018E0EB48844209D10121C804FFF785F899
:102B100000214FF40020FFF780F80BE0E5488442E5
:102B200008D101210805FFF778F800214FF4801043
:102B3000FFF773F810BD2DE9F04786B005460E4645
:102B40000024A24600BFA1460027B08900B100BF03
:102B50002F462C8A4CF6FF700440F08804432C82E8
:102B6000AC894EF6F3100440B0883189084371896E
:102B700008430443AC81AC8A4FF6FF400440B0895F
:102B80000443AC8201A8FEF7B4FFC648874202D1D5
:102B9000DDF810A001E0DDF80CA0A88900F40040E9
:102BA00040B10AEBCA0000EB0A1031684900B0FBE3
:102BB000F1F807E00AEBCA0000EB0A10316889005F
:102BC000B0FBF1F86420B8FBF0F0040120096421A7
:102BD00001FB1089A88900F4004040B1322000EBCD
:102BE000C900B0FBF1F000F00700044308E0322018
:102BF00000EB09106421B0FBF1F000F00F0004437A
:102C00002C8106B0BDE8F0874FF416510160002119
:102C10008180C18001810C21418100218181704727
:102C200010B502460020108A4FF2FF0318400B88AF
:102C30004C8823438C882343CC8823431843108239
:102C400010BD0021018041808180C180704721B189
:102C5000828942F40052828104E082894DF6FF733A
:102C60001A4082817047F0B50346002400260025F3
:102C7000002040F66A17B94200D100BF1846C1F3E0
:102C8000421401F01F06012707FA06F5012C01D1B5
:102C90000C3004E0022C01D1103000E014301AB1E5
:102CA00007682F43076002E00768AF430760F0BD85
:102CB0001AB1838A0B43838202E0838A8B43838227
:102CC0007047028A4FF6F0731A400282028A0A4362
:102CD0000282704782894FF2FF731A408281828993
:102CE0000A438281704721B1828942F002028281C7
:102CF00004E082894FF6FD731A4082817047028A90
:102D00004FF6DF731A400282028A0A43028270473A
:102D100021B1028A42F48042028204E0028A4BF628
:102D2000FF731A4002827047C1F308028280704725
:102D300001468888C0F308007047818941F001018D
:102D400081817047028BD2B20283028B42EA012258
:102D500002837047028B02F47F420283028B0A4394
:102D60000283704721B1828A42F02002828204E00D
:102D7000828A4FF6DF731A408282704721B1828ABD
:102D800042F01002828204E0828A4FF6EF731A400A
:102D90008282704721B1828A42F00802828204E076
:102DA000828A4FF6F7731A408282704721B1828976
:102DB00042F40042828103E08289C2F30E028281E2
:102DC000704721B1828A42F40062828204E0828AE2
:102DD0004FF2FF731A4082827047828A4FF6FB736C
:102DE0001A408282828A0A438282704721B1828A93
:102DF00042F00202828204E0828A4FF6FD731A409A
:102E00008282704702460020B1F5007F00D100BFEA
:102E100013880B400BB1012000E00020704701F443
:102E20000072B2F5007F00D100BFCA430280704734
:102E300070B50246002400230025002040F66A16E3
:102E4000B14200D100BFC1F3421501F01F030126BA
:102E500006FA03F3012D02D19689334006E0022DD4
:102E600002D1168A334001E0968A33400C120126C3
:102E700006FA04F41688344013B10CB1012000E0C6
:102E8000002070BD10B50022002340F66A14A14254
:102E900000D100BF0A1201249440A3B2DC43048095
:102EA00010BD0000003801400044004000480040D0
:102EB000004C00400050004000F0E0FE00F084FEB6
:102EC00004F0C8F900F014FF08F089FF08F06DFC69
:102ED00000F034FC04F016FB01F02EFF08F005FDB5
:102EE00004F048FB25E0FEF7ECFC1248008800F0F7
:102EF0001BFF1148007818B906F0BDFB09F0CDF9A9
:102F000009F074F90D4801680D48006809F00BF9E3
:102F10000C48007800F0010038B10A48006820F041
:102F200001000849086000F096FC09F081F909F0F9
:102F300090FBD8E7A800002074000020BC0000200F
:102F4000B800002018000020704700BFFEE700BF57
:102F5000FEE700BFFEE700BFFEE77047704710B511
:102F600000F07AFEFE480078C0F3001020B1FD4862
:102F70000078401CFB490870FA4800781E280BDDD9
:102F80000020F8490870F648006820F01000F44965
:102F900008600020F449087010BD10B5F0480068C2
:102FA00020F010001030EE49086040F22551EF4843
:102FB000FFF73EFF00287DD040F22551EB48FFF798
:102FC00061FFEA48FFF7B4FEE949E74A12788854FE
:102FD0000846007801286ED108464078062824D19A
:102FE000E1480078082867DD0020DF490870E148E3
:102FF000006820F010001030DE490860D8480068F2
:1030000020F01000D64908600020D6490870D94841
:103010000078C0F3001038B1D648006820F01000E6
:10302000D449086004F0F3FA10BDD1484078102864
:1030300024D1CD480078A0283ED10020CA4908708C
:10304000CC48006820F010001030CA490860C4481D
:10305000006820F01000C24908600020C1490870D3
:10306000C4480078C0F3001038B1C248006820F0AE
:103070001000C049086004F0CAFAD5E7BC4840789F
:10308000032828D1B8480078072875D10020B64910
:103090000870B848006820F010001030B54908608A
:1030A000AF48006820F01000AD4908600020AD492D
:1030B000087002E074E037E05EE0AE480078C0F3EC
:1030C000001038B1AB48006820F01000A949086032
:1030D00004F09DFAA8E7A6484078A5284CD1A2485C
:1030E0000078082848D100209F490870A14800684E
:1030F00020F0100010309F4908609948006820F0C7
:103100001000974908600020964908709948007897
:10311000C0F3001038B19748006820F010009549BE
:10312000086004F074FA7FE79148007820BB8E486D
:103130000078082820DD00208B4908708D48006841
:1031400020F0100010308B4908608548006820F09E
:103150001000834908600020824908708548007883
:10316000C0F3001038B18348006820F01000814996
:10317000086004F04CFA57E77B480078401C7A4915
:10318000087008460078C8280ADD002008707948D1
:10319000006820F01000774908600020714908702D
:1031A00000BF41E710B56E48006820F010001030F5
:1031B0006B49086040F225516F48FFF739FE00283F
:1031C0007ED040F225516C48FFF75CFE6A48FFF75D
:1031D000AFFD6749644A1278885408460078012890
:1031E0006FD108464078062824D15F480078082827
:1031F00068DD00205C4908705E48006820F010001F
:1032000010305C4908605648006820F010005449AE
:10321000086000205349087056480078C0F3001039
:1032200038B15448006820F010005249086004F09A
:10323000EEF910BD4E484078102824D14A48007855
:10324000A0283FD10020484908704A48006820F073
:1032500010001030474908604148006820F0100015
:103260003F49086000203F49087042480078C0F399
:10327000001038B13F48006820F010003D49086058
:1032800004F0C5F9D5E73A484078032828D13648F4
:103290000078072816D100203349087035480068A7
:1032A00020F010001030334908602D48006820F0ED
:1032B00010002B49086000202A4908702D4802E0C0
:1032C00083E036E06CE00078C0F3001038B12948A4
:1032D000006820F010002749086004F098F9A8E77A
:1032E00023484078A5285CD11F480078082858D189
:1032F00000201D4908701F48006820F010001030A1
:103300001C4908601648006820F010001449086045
:1033100000201449087017480078C0F3001038B135
:103320001448006820F010001249086004F06FF99A
:103330007FE70F48007898BB0B480078082830DDFD
:103340000020094908700B48006820F01000103078
:10335000084908600248006820F0100000490DE0AC
:103360001C000020AE000020AC000020003801400E
:103370005C04002018000020004400400860002089
:103380006449087064480078C0F3001038B162489E
:10339000006820F010006049086004F038F948E740
:1033A000FFE75E480078401C5C49087008460078DA
:1033B000C8280ADD002008705748006820F0100077
:1033C0005549086000205349087000BF31E710B527
:1033D00040F225515248FFF72BFD20B140F2255114
:1033E0004F48FFF74FFD10BD10B501214D48FFF7C5
:1033F0005BFB4D480078C0F3801038B94A4800683C
:1034000020F0200020304849086005E04648006868
:1034100020F02000444908604448406B04285CD1F7
:103420004248006B012858D14048D0F8AC00A0BBFE
:103430003F480078012816D13C48D0F89C003D490F
:103440000968884205D93B480068401C3949086032
:1034500046E00020364908700120374908700020F6
:10346000344908603CE034480078012838D12F48BE
:10347000D0F8A0002F490968884205D92D48006876
:10348000401C2C4908602BE00120294908700020CD
:10349000294908702749086022E0FFE72348D0F84F
:1034A000AC0001281CD124480078012818D11F48FD
:1034B000D0F8A0001F490968884205D91D48006856
:1034C000401C1C4908600BE00120194908700020CD
:1034D000194908701749086002E000201549086082
:1034E00010BD10B50C48006820F00100401C0A49CE
:1034F00008600220FDF73BFA10BD10B52020FDF753
:1035000036FA0948006820F08000803006490860DB
:1035100010BD0000AE00002018000020AC0000200C
:1035200000480040001000401C000020580300200C
:103530003400002038000020350000200CB50020A9
:10354000019000906C48006840F480306A4908603F
:1035500000BF6948006800F4003000900198401CEA
:103560000190009818B90198B0F5A06FF1D16248A8
:10357000006800F4003010B10120009001E000204C
:1035800000900098012843D15C48006840F010008A
:103590005A4908600846006820F0030008600846A1
:1035A000006840F002000860534840685249486093
:1035B0000846406848600846406840F480604860BB
:1035C0000846406820F47C1048600846406840F493
:1035D000E81048600846006840F08070086000BF4E
:1035E0004548006800F000700028F9D04248406863
:1035F00020F00300404948600846406840F002005F
:10360000486000BF3C48406800F00C000828F9D131
:103610000CBD10B5FFF792FF10BD10B5364800681D
:1036200040F00100344908600846406834490840C9
:103630003149486008460068324908402E49086010
:103640000846006820F4802008600846406820F49E
:10365000FE0048604FF41F008860FFF7DAFF4FF06C
:1036600000602949086010BD10B50021002000222B
:10367000214B5B6803F00C0121B1042906D0082915
:1036800028D107E0214B224C236027E01F4B204C20
:10369000236023E0184B5B6803F47010164B5B68E3
:1036A00003F48032022303EB904022B9194B4343C9
:1036B000174C23600DE0104B5B6803F4003323B11B
:1036C000144B4343124C236003E0104B4343104C14
:1036D000236003E00D4B0E4C236000BF00BF064B80
:1036E0005B68C3F303130C4CE15C094B1B68CB40D4
:1036F000074C236010BD0000001002400020024073
:103700000000FFF8FFFFF6FE08ED00E000127A006F
:103710004400002000093D004800002008B50B20AF
:103720008DF8000003208DF801008DF802000120C3
:103730008DF803006846FCF76EFD08BD00B591B03A
:103740007F48FCF7D1FD01214802FEF73FFA012135
:103750000846FEF72EFA4020ADF8000000208DF854
:10376000030069467748FDF755FF1020ADF80000CB
:1037700000208DF8030069467248FDF74BFF724840
:10378000FCF7DAFF6E484C30019070480290002040
:103790000390642004900020059080200690400053
:1037A0000790800008902020099000020A900020D5
:1037B0000B9001A96448FDF761F801216248FDF70B
:1037C00088F8012202216048FDF78FF8FFF7A6FF75
:1037D00001215B48FCF7E6FD00200C9001208DF8EC
:1037E00034008DF835004FF460200E9000200F90CB
:1037F00002208DF840000CA95148FCF79CFD4FF4C5
:103800004040FEF747F90523012204214C48FCF70C
:103810002AFE0523022206214948FCF724FE012145
:103820004748FCF7B4FD4648FCF7D3FD4448FCF795
:10383000DFFD00BF4248FCF7D1FD0028FAD100BFF0
:103840003F48FCF7DAFD0028FAD101213C48FCF79B
:10385000DEFD11B000BD0EB50020019030E09DF8F6
:10386000040000EBD0714910A0EB410169B9374960
:103870009DF8042031F8122035490878411C344B5A
:103880001970344921F8102015E09DF8040000EB70
:10389000D0714910A0EB410101290CD12B499DF8B1
:1038A000042031F812202C490878411C2A4B197049
:1038B0002A4921F810209DF80400401CC0B2019054
:1038C0009DF804006428CADB0020214908702249C1
:1038D0000870009002900CE01E489DF8081030F827
:1038E00011000099084400909DF80800401CC0B2E7
:1038F00002909DF808003228EEDB32210098B0FBE0
:10390000F1F0174908800020009002900CE0134865
:103910009DF8081030F811000099084400909DF8B7
:103920000800401CC0B202909DF808003228EEDB6F
:1039300032210098B0FBF1F00A4908800EBD00006A
:10394000002401400008014008000240E800002077
:1039500062000020B001002063000020140200205B
:10396000580000205A00002010B5A02003F0ECFD04
:1039700008B9012010BD03F005FD0020FAE717B5D6
:1039800081B0044603F0E6FCA02003F00BFD03F039
:103990006DFD00B135E0BDF80810C8B203F002FDBE
:1039A00003F064FD00B12CE003F0D4FCA12003F08F
:1039B000F9FC03F05BFD00B123E00020009015E06E
:1039C00003F028FDBDF800106054BDF80C00401E47
:1039D000BDF80010884202D003F068FD01E003F05A
:1039E0007DFDBDF80000401C80B20090BDF80000D5
:1039F000BDF80C108842E3DB03F0C4FC012004B0E6
:103A000010BD03F0BFFC0020F9E717B583B00446F2
:103A1000BDF8100000900020029041E0BDF80800C1
:103A200020B1BDF8000000F0070030BB03F0AAFC95
:103A3000002001900DE003F08DFCA02003F0B2FC0B
:103A400003F014FD00B908E0BDF80400401C80B28A
:103A50000190BDF804006428EDDB00BFBDF8040050
:103A6000B0F57A7F00D126E0BDF80010C8B203F0AF
:103A700099FC03F0FBFC00B11DE0BDF80810605C90
:103A800003F090FC03F0F2FC00B114E0BDF800007C
:103A9000401C80B20090BDF80800401C80B202902B
:103AA000BDF80800BDF814108842B7DB03F06AFCCB
:103AB000012006B010BD03F065FC0020F9E7C1B09D
:103AC0000020409009E0FF20BDF800210DF8020021
:103AD000BDF80001401C80B24090BDF80001FF28F5
:103AE000F1DD41B0704703B583B0BDF80C00019023
:103AF00003F048FC002002900DE003F02BFCA02016
:103B000003F050FC03F0B2FC00B908E0BDF8080077
:103B1000401C80B20290BDF808006428EDDB00BFB5
:103B2000BDF80800B0F57A7F00D113E0BDF80410AD
:103B3000C8B203F037FC03F099FC00B10AE09DF82D
:103B4000100003F02FFC03F091FC00B102E003F041
:103B500019FC00BF03F016FC05B000BD01B503F071
:103B6000F9FBA02003F01EFC03F080FC00B11BE079
:103B70009DF8000003F016FC03F078FC00B113E0A0
:103B800003F0E8FBA12003F00DFC03F06FFC00B193
:103B90000AE003F03FFC0B49087003F09FFC03F0C0
:103BA000F1FB0848007808BD03F0ECFB0020FAE7C1
:103BB00001B502E00098401E009000980028F9D15D
:103BC00008BD00006400002030B5284800684FF4AC
:103BD0007A72B0FBF2F1B1F1807F01D301201DE0D8
:103BE00021F07F40401E4FF0E022506150170F221D
:103BF000002807DA13071D0E1D4B00F00F04241FC9
:103C00001D5503E013071C0E1A4B1C5400BF002067
:103C10004FF0E022906107201061002008B100BF42
:103C2000FEE74FF0E020006940F001004FF0E02196
:103C3000086130BD01B51049009808604FF0E020E0
:103C4000006940F001004FF0E021086100BF0A4820
:103C500000680028FBD108BD0748006820B106486D
:103C60000068401E044908607047000044000020BE
:103C700018ED00E000E400E06800002010B5FDF75A
:103C800037FE4FF48030FDF753FEFDF790FE1749E5
:103C9000087008460078012826D10020FDF7CDFEE7
:103CA0000020FDF7DCFE4FF48060FDF7CFFE022020
:103CB000FCF76CFE1020FCF77DFE4FF4E0114FF492
:103CC0008030FDF79DFE0120FDF7A6FE00BF3920E4
:103CD000FDF751FE0028FAD00220FDF7A0FE00BF3C
:103CE000FDF7A6FE0828FBD110BD00006C000020E7
:103CF00008B53020ADF8000010208DF80300022038
:103D00008DF8020069463948FDF784FC0320ADF8C0
:103D1000000010208DF8030002208DF80200694693
:103D20003348FDF777FC08BD01B582B00221304869
:103D3000FDF71FFD01212E48FDF719FD00BF00BF53
:103D400000BF00BF02212A48FDF711FD00BF01217D
:103D50002748FDF70CFD00BF00BF02212448FDF7F6
:103D600008FD0020019025E0BDF8080000F40040A7
:103D700020B120211D48FDF7FAFC03E020211B485B
:103D8000FDF7F7FC01211A48FDF7F3FC00BF00BF67
:103D900001211748FDF7EBFC00BF00BFBDF808008C
:103DA0004FF6FF7101EA400002909DF80400401CAC
:103DB000C0B201909DF804001028D5DB02210C4808
:103DC000FDF7D5FC01210A48FDF7D1FC00BF00BF7B
:103DD00000BF10210548FDF7CCFC00BF00BF00BFAD
:103DE00010210248FDF7C3FC0EBD00000010014089
:103DF000000C014008B5FE480068000E00909DF8D8
:103E000000100120FFF76FFEF9480068C0F307407B
:103E100000909DF800100220FFF765FEF44800684E
:103E2000C0F3072000909DF800100320FFF75BFE11
:103E3000EF480068C1B20420FFF755FEEC48406827
:103E4000000E00909DF800100520FFF74CFEE8489A
:103E50004068C0F3074000909DF800100620FFF76F
:103E600042FEE3484068C0F3072000909DF8001030
:103E70000720FFF738FEDE484068C1B20820FFF790
:103E800032FEDB48C068000E00909DF8001009204B
:103E9000FFF729FED648C068C0F3074000909DF8A0
:103EA00000100A20FFF71FFED148C068C0F30720AA
:103EB00000909DF800100B20FFF715FECC48C0685D
:103EC000C1B20C20FFF70FFEFDF7FBFCC8480069EC
:103ED000000E00909DF800100D20FFF704FEC4486E
:103EE0000069C0F3074000909DF800100E20FFF716
:103EF000FAFDBF480069C0F3072000909DF800104C
:103F00000F20FFF7F0FDBA480069C1B21020FFF79B
:103F1000EAFDB8480068000E00909DF800101120DE
:103F2000FFF7E1FDB3480068C0F3074000909DF83B
:103F300000101220FFF7D7FDAE480068C0F307203D
:103F400000909DF800101320FFF7CDFDA9480068F0
:103F5000C1B21420FFF7C7FDA6484068000E0090CC
:103F60009DF800101520FFF7BEFDA2484068C0F381
:103F7000074000909DF800101620FFF7B4FD9D4803
:103F80004068C0F3072000909DF800101720FFF74D
:103F9000AAFD98484068C1B21820FFF7A4FD9548D3
:103FA000C068000E00909DF800101920FFF79BFDDF
:103FB0009048C068C0F3074000909DF800101A2098
:103FC000FFF791FD8B48C068C0F3072000909DF873
:103FD00000101B20FFF787FD8648C068C1B21C2077
:103FE000FFF781FD83480069000E00909DF80010E6
:103FF0001D20FFF778FD7F480069C0F3074000905F
:104000009DF800101E20FFF76EFD7A480069C0F38E
:10401000072000909DF800101F20FFF764FD7548F1
:104020000069C1B22020FFF75EFD734801782120AE
:10403000FFF759FDFDF745FC6D488069000E0090C3
:104040009DF800102220FFF74EFD69488069C0F3FB
:10405000074000909DF800102320FFF744FD6448BE
:104060008069C0F3072000909DF800102420FFF71E
:104070003AFD5F488069C1B22520FFF734FD5C48F6
:10408000C069000E00909DF800102620FFF72BFD60
:104090005748C069C0F3074000909DF800102720E2
:1040A000FFF721FD5248C069C0F3072000909DF83A
:1040B00000102820FFF717FD4D48C069C1B2292024
:1040C000FFF711FD4A48406A000E00909DF800106D
:1040D0002A20FFF708FD4648406AC0F307400090D9
:1040E0009DF800102B20FFF7FEFC4148406AC0F30A
:1040F000072000909DF800102C20FFF7F4FC3C48AE
:10410000406AC1B22D20FFF7EEFCFDF7DAFB38481C
:10411000806A000E00909DF800102E20FFF7E3FC4F
:104120003348806AC0F3074000909DF800102F20AC
:10413000FFF7D9FC2E48806AC0F3072000909DF855
:1041400000103020FFF7CFFC2948806AC1B231202F
:10415000FFF7C9FC27488069000E00909DF8001009
:104160003220FFF7C0FC23488069C0F3074000906D
:104170009DF800103320FFF7B6FC1E488069C0F39D
:10418000072000909DF800103420FFF7ACFC194880
:104190008069C1B23520FFF7A6FC1648C069000E41
:1041A00000909DF800103620FFF79DFC1148C06973
:1041B000C0F3074000909DF800103720FFF793FCF4
:1041C0000C48C069C0F3072000909DF8001038200B
:1041D000FFF789FC0748C069C1B23920FFF783FCAB
:1041E000FDF76FFB0348406A000E009006E00000F8
:1041F000E002002078020020480300209DF8001013
:104200003A20FFF770FCFE48406AC0F30740009078
:104210009DF800103B20FFF766FCF948406AC0F3A8
:10422000072000909DF800103C20FFF75CFCF4484C
:10423000406AC1B23D20FFF756FCF148806A000E8B
:1042400000909DF800103E20FFF74DFCEC48806A7E
:10425000C0F3074000909DF800103F20FFF743FC9B
:10426000E748806AC0F3072000909DF800104020C6
:10427000FFF739FCE248806AC1B24120FFF733FC06
:10428000E04841784220FFF72EFCFDF71AFBDD489D
:1042900081784320FFF727FCDA48C1784420FFF7F4
:1042A00022FCD9488068000E00909DF8001045203F
:1042B000FFF719FCD4488068C0F3074000909DF8D0
:1042C00000104620FFF70FFCCF488068C0F307209E
:1042D00000909DF800104720FFF705FCCA48806851
:1042E000C1B24820FFF7FFFBC7484069000E0090AD
:1042F0009DF800104920FFF7F6FBC3484069C0F362
:10430000074000909DF800104A20FFF7ECFBBE48E4
:104310004069C0F3072000909DF800104B20FFF784
:10432000E2FBB9484069C1B24C20FFF7DCFBB4485E
:104330008068000E00909DF800104D20FFF7D3FB21
:10434000AF488068C0F3074000909DF800104E20F1
:10435000FFF7C9FBAA488068C0F3072000909DF8CA
:1043600000104F20FFF7BFFBA5488068C1B2502066
:10437000FFF7B9FBA2484069000E00909DF80010BD
:104380005120FFF7B0FB9E484069C0F30740009002
:104390009DF800105220FFF7A6FB99484069C0F332
:1043A000072000909DF800105320FFF79CFB9448D5
:1043B0004069C1B25420FFF796FBFDF782FA92489C
:1043C000006A000E00909DF800105520FFF78BFB4F
:1043D0008D48006AC0F3074000909DF800105620F9
:1043E000FFF781FB8848006AC0F3072000909DF822
:1043F00000105720FFF777FB8348006AC1B25820AE
:10440000FFF771FB8048C06A000E00909DF8001015
:104410005920FFF768FB7C48C06AC0F30740009052
:104420009DF800105A20FFF75EFB7748C06AC0F382
:10443000072000909DF800105B20FFF754FB7248A6
:10444000C06AC1B25C20FFF74EFBFDF73AFA6C4838
:10445000006A000E00909DF800105D20FFF743FBFE
:104460006748006AC0F3074000909DF800105E2086
:10447000FFF739FB6248006AC0F3072000909DF8FF
:1044800000105F20FFF72FFB5D48006AC1B260207B
:10449000FFF729FB5A48C06A000E00909DF80010F3
:1044A0006120FFF720FB5648C06AC0F30740009028
:1044B0009DF800106220FFF716FB5148C06AC0F358
:1044C000072000909DF800106320FFF70CFB4C487C
:1044D000C06AC1B26420FFF706FB4A480179652033
:1044E000FFF701FB474841796620FFF7FCFAFDF72B
:1044F000E8F94348006B000E00909DF8001067201B
:10450000FFF7F1FA3E48006BC0F3074000909DF8BA
:1045100000106820FFF7E7FA3948006BC0F3072066
:1045200000909DF800106920FFF7DDFA3448006B19
:10453000C1B26A20FFF7D7FA3148406B000E0090F5
:104540009DF800106B20FFF7CEFA2D48406BC0F3AA
:10455000074000909DF800106C20FFF7C4FA28482F
:10456000406BC0F3072000909DF800106D20FFF70E
:10457000BAFA2348006BC1B26E20FFF7B4FAFDF718
:10458000A0F91F48806B000E00909DF800106F206E
:10459000FFF7A9FA1A48806BC0F3074000909DF816
:1045A00000107020FFF79FFA1548806BC0F30720BA
:1045B00000909DF800107120FFF795FA1048806B6D
:1045C000C1B27220FFF78FFA0D48C06B000E009049
:1045D0009DF800107720FFF786FA0948C06BC0F3FA
:1045E000074000909DF800107820FFF77CFA0448FF
:1045F000C06BC0F3072000909DF80010792005E003
:104600007802002048030020E0020020FFF76BFA48
:10461000FE48C06BC1B27A20FFF765FAFDF751F989
:10462000FA48006C000E00909DF800107B20FFF708
:104630005AFAF648006CC0F3074000909DF800104D
:104640007C20FFF750FAF148006CC0F3072000907F
:104650009DF800107D20FFF746FAEC48006CC1B2CF
:104660007E20FFF740FAE948406C000E00909DF86C
:1046700000107F20FFF737FAE448406CC0F3074092
:1046800000909DF800108020FFF72DFADF48406C65
:10469000C0F3072000909DF800108120FFF723FA57
:1046A000DA48406CC1B28220FFF71DFAFDF709F924
:1046B000D648806C000E00909DF800108320FFF714
:1046C00012FAD248806CC0F3074000909DF80010A9
:1046D0008420FFF708FACD48806CC0F307200090D3
:1046E0009DF800108520FFF7FEF9C848806CC1B224
:1046F0008620FFF7F8F9C548C06C000E00909DF8C1
:1047000000108720FFF7EFF9C048C06CC0F30740E6
:1047100000909DF800108820FFF7E5F9BB48C06CB9
:10472000C0F3072000909DF800108920FFF7DBF907
:10473000B648C06CC1B28A20FFF7D5F9FDF7C1F8C1
:10474000B348006B000E00909DF800108B20FFF71F
:10475000CAF9AF48006BC0F3074000909DF8001005
:104760008C20FFF7C0F9AA48006BC0F30720009027
:104770009DF800108D20FFF7B6F9A548006BC1B277
:104780008E20FFF7B0F9A248406B000E00909DF814
:1047900000108F20FFF7A7F99D48406BC0F307403A
:1047A00000909DF800109020FFF79DF99848406B0D
:1047B000C0F3072000909DF800109120FFF793F9B7
:1047C0009348406BC1B29220FFF78DF9FDF779F85D
:1047D0008F48806B000E00909DF800109320FFF72B
:1047E00082F98B48806BC0F3074000909DF8001061
:1047F0009420FFF778F98648806BC0F3072000907B
:104800009DF800109520FFF76EF98148806BC1B2CA
:104810009620FFF768F97E48C06B000E00909DF867
:1048200000109720FFF75FF97948C06BC0F307408D
:1048300000909DF800109820FFF755F97448C06B60
:10484000C0F3072000909DF800109920FFF74BF966
:104850006F48C06BC1B29A20FFF745F9FDF731F8F8
:104860006B48006C000E00909DF800109B20FFF735
:104870003AF96748006CC0F3074000909DF80010BB
:104880009C20FFF730F96248006CC0F307200090CD
:104890009DF800109D20FFF726F95D48006CC1B21D
:1048A0009E20FFF720F95A48406C000E00909DF8BA
:1048B00000109F20FFF717F95548406CC0F30740E0
:1048C00000909DF80010A020FFF70DF95048406CB3
:1048D000C0F3072000909DF80010A120FFF703F916
:1048E0004B48406CC1B2A220FFF7FDF8FCF7E9FF8E
:1048F0004748806C000E00909DF80010A320FFF741
:10490000F2F84348806CC0F3074000909DF8001017
:10491000A420FFF7E8F83E48806CC0F30720009021
:104920009DF80010A520FFF7DEF83948806CC1B271
:10493000A620FFF7D8F83648C06C000E00909DF80E
:104940000010A720FFF7CFF83148C06CC0F3074034
:1049500000909DF80010A820FFF7C5F82C48C06C07
:10496000C0F3072000909DF80010A920FFF7BBF8C6
:104970002748C06CC1B2AA20FFF7B5F8FCF7A1FF29
:104980002248006D000E00909DF80010AF20FFF748
:10499000AAF81E48006DC0F3074000909DF8001073
:1049A000B020FFF7A0F81948006DC0F30720009071
:1049B0009DF80010B120FFF796F81448006DC1B2C1
:1049C000B220FFF790F81148C06D000E00909DF8DE
:1049D0000010B320FFF787F80C48C06DC0F3074004
:1049E00000909DF80010B420FFF77DF80748C06DD7
:1049F000C0F3072000909DF80010B520FFF773F872
:104A00000248C06DC1B2B62004E000007802002068
:104A1000E0020020FFF767F8FCF753FFFE48406D07
:104A2000000E00909DF80010B720FFF75CF8FA48E0
:104A3000406DC0F3074000909DF80010B820FFF7CC
:104A400052F8F548406DC0F3072000909DF8001023
:104A5000B920FFF748F8F048406DC1B2BA20FFF71F
:104A600042F8ED48006E000E00909DF80010BB204B
:104A7000FFF739F8E848006EC0F3074000909DF852
:104A80000010BC20FFF72FF8E348006EC0F30720AA
:104A900000909DF80010BD20FFF725F8DE48006E5D
:104AA000C1B2BE20FFF71FF8FCF70BFFDA48806D9C
:104AB000000E00909DF80010BF20FFF714F8D648B4
:104AC000806DC0F3074000909DF80010C020FFF7F4
:104AD0000AF8D148806DC0F3072000909DF80010BF
:104AE000C120FFF700F8CC48806DC1B2C220FEF7AC
:104AF000FAFFC948406E000E00909DF80010C320D8
:104B0000FEF7F1FFC448406EC0F3074000909DF8E7
:104B10000010C420FEF7E7FFBF48406EC0F3072037
:104B200000909DF80010C520FEF7DDFFBA48406EEA
:104B3000C1B2C620FEF7D7FFFCF7C3FEB748006D31
:104B4000000E00909DF80010C720FEF7CCFFB34880
:104B5000006DC0F3074000909DF80010C820FEF7DC
:104B6000C2FFAE48006DC0F3072000909DF8001012
:104B7000C920FEF7B8FFA948006DC1B2CA20FEF7F0
:104B8000B2FFA648C06D000E00909DF80010CB202B
:104B9000FEF7A9FFA148C06DC0F3074000909DF843
:104BA0000010CC20FEF79FFF9C48C06DC0F307208B
:104BB00000909DF80010CD20FEF795FF9748C06D3E
:104BC000C1B2CE20FEF78FFFFCF77BFE9348406D0D
:104BD000000E00909DF80010CF20FEF784FF8F4854
:104BE000406DC0F3074000909DF80010D020FEF704
:104BF0007AFF8A48406DC0F3072000909DF80010AE
:104C0000D120FEF770FF8548406DC1B2D220FEF77B
:104C10006AFF8248006E000E00909DF80010D320BD
:104C2000FEF761FF7D48006EC0F3074000909DF8DD
:104C30000010D420FEF757FF7848006EC0F307201D
:104C400000909DF80010D520FEF74DFF7348006ED0
:104C5000C1B2D620FEF747FFFCF733FE6F48806DE8
:104C6000000E00909DF80010D720FEF73CFF6B4827
:104C7000806DC0F3074000909DF80010D820FEF72B
:104C800032FF6648806DC0F3072000909DF8001049
:104C9000D920FEF728FF6148806DC1B2DA20FEF707
:104CA00022FF5E48406E000E00909DF80010DB2051
:104CB000FEF719FF5948406EC0F3074000909DF879
:104CC0000010DC20FEF70FFF5448406EC0F30720B1
:104CD00000909DF80010DD20FEF705FF4F48406E64
:104CE000C1B2DE20FEF7FFFEFCF7EBFD4C488179F8
:104CF000AB20FEF7F8FE4A48C179AC20FEF7F3FE80
:104D00004748017AAD20FEF7EEFE4548417AAE20D5
:104D1000FEF7E9FE4248817ADF20FEF7E4FE4048D4
:104D2000C17AE020FEF7DFFE3D48017BE120FEF77F
:104D3000DAFEFCF7C6FD08BD10B50120FEF70EFF38
:104D4000364908600120FEF709FF3449086008462B
:104D50000068000208600220FEF700FF2F49096882
:104D600008442E49086008460068000208600320D5
:104D7000FEF7F4FE294909680844284908600846F6
:104D80000068000208600420FEF7E8FE2349096875
:104D90000844224908600520FEF7E0FE1F494860EC
:104DA00008464068000248600620FEF7D7FE1B490F
:104DB000496808441949486008464068000248604C
:104DC0000720FEF7CBFE154949680844134948609F
:104DD00008464068000248600820FEF7BFFE0F4901
:104DE000496808440D4948600920FEF7B7FE0B49A1
:104DF000C8600846C0680002C8600A20FEF7AEFE20
:104E00000649C96808440549C8600846C0680002E8
:104E1000C8600B2006E0000078020020E0020020BD
:104E200048030020FEF79AFEFE49C9680844FD4980
:104E3000C8600846C0680002C8600C20FEF78EFEFD
:104E4000F849C9680844F749C8600D20FEF786FE96
:104E5000F449086108460069000208610E20FEF767
:104E60007DFEF04909690844EE4908610846006979
:104E7000000208610F20FEF771FEEA490969084443
:104E8000E849086108460069000208611020FEF741
:104E900065FEE44909690844E24908611120FEF70A
:104EA0005DFEE149086008460068000208601220C3
:104EB000FEF754FEDC4909680844DB4908600846EF
:104EC0000068000208601320FEF748FED649096812
:104ED0000844D549086008460068000208601420AC
:104EE000FEF73CFED04909680844CF490860152008
:104EF000FEF734FECC49486008464068000248602E
:104F00001620FEF72BFEC84949680844C649486088
:104F100008464068000248601720FEF71FFEC2499D
:104F200049680844C0494860084640680002486033
:104F30001820FEF713FEBC4949680844BA49486086
:104F40001920FEF70BFEB849C8600846C068000289
:104F5000C8601A20FEF702FEB349C9680844B24986
:104F6000C8600846C0680002C8601B20FEF7F6FD56
:104F7000AD49C9680844AC49C8600846C068000229
:104F8000C8601C20FEF7EAFDA749C9680844A64985
:104F9000C8601D20FEF7E2FDA349086108460069CC
:104FA000000208611E20FEF7D9FD9F4909690844E7
:104FB0009D49086108460069000208611F20FEF74C
:104FC000CDFD994909690844974908610846006977
:104FD000000208612020FEF7C1FD934909690844D9
:104FE000914908612120FEF7B9FD904908702220FF
:104FF000FEF7B4FD8B49886108468069000288612C
:105000002320FEF7ABFD87498969084485498861FB
:1050100008468069000288612420FEF79FFD8149CF
:10502000896908447F49886108468069000288616F
:105030002520FEF793FD7B498969084479498861F9
:105040002620FEF78BFD7749C8610846C06900023B
:10505000C8612720FEF782FD7249C9690844714979
:10506000C8610846C0690002C8612820FEF776FDC5
:105070006C49C96908446B49C8610846C0690002A7
:10508000C8612920FEF76AFD6649C9690844654977
:10509000C8612A20FEF762FD624948620846406AFC
:1050A000000248622B20FEF759FD5E49496A084418
:1050B0005C4948620846406A000248622C20FEF7BC
:1050C0004DFD5849496A0844564948620846406AB5
:1050D000000248622D20FEF741FD5249496A08440A
:1050E000504948622E20FEF739FD4E498862084635
:1050F000806A000288622F20FEF730FD4949896AE4
:105100000844484988620846806A00028862302064
:10511000FEF724FD4349896A0844424988620846EB
:10512000806A000288623120FEF718FD3D49896AD5
:1051300008443C4988623220FEF710FD3A498861F4
:1051400008468069000288613320FEF707FD364972
:105150008969084434498861084680690002886189
:105160003420FEF7FBFC3049896908442E498861E8
:1051700008468069000288613520FEF7EFFC2A4965
:1051800089690844284988613620FEF7E7FC2649EA
:10519000C8610846C0690002C8613720FEF7DEFC1E
:1051A0002149C96908442049C8610846C06900020C
:1051B000C8613820FEF7D2FC1B49C96908441A4966
:1051C000C8610846C0690002C8613920FEF7C6FC04
:1051D0001549C96908441449C8613A20FEF7BEFC64
:1051E000114948620846406A000248623B20FEF7C7
:1051F000B5FC0D49496A08440B4948620846406AB3
:10520000000248623C20FEF7A9FC0749496A0844AD
:10521000054948620846406A000248623D20FEF7A0
:105220009DFC05E0E00200207802002048030020F9
:10523000FE49496A0844FD4948623E20FEF78EFC5B
:10524000FA4988620846806A000288623F20FEF7B9
:1052500085FCF649896A0844F44988620846806AF0
:10526000000288624020FEF779FCF049896A084410
:10527000EE4988620846806A000288624120FEF793
:105280006DFCEA49896A0844E84988624220FEF7D1
:1052900065FCE74948704320FEF760FCE4498870EC
:1052A0004420FEF75BFCE249C8704520FEF756FC3F
:1052B000E049886008468068000288604620FEF762
:1052C0004DFCDC4989680844DA49886008468068F2
:1052D000000288604720FEF741FCD64989680844EF
:1052E000D449886008468068000288604820FEF73C
:1052F00035FCD04989680844CE4988604920FEF7CA
:105300002DFCCC49486108464069000248614A20AA
:10531000FEF724FCC74949690844C6494861084664
:105320004069000248614B20FEF718FCC1494969F9
:105330000844C049486108464069000248614C2061
:10534000FEF70CFCBB4949690844BA4948614D2045
:10535000FEF704FCB5498860084680680002886052
:105360004E20FEF7FBFBB14989680844AF498860CD
:1053700008468068000288604F20FEF7EFFBAB49CB
:1053800089680844A94988600846806800028860E6
:105390005020FEF7E3FBA54989680844A3498860CB
:1053A0005120FEF7DBFBA149486108464069000235
:1053B00048615220FEF7D2FB9C49496908449B4949
:1053C000486108464069000248615320FEF7C6FB69
:1053D0009649496908449549486108464069000270
:1053E00048615420FEF7BAFB9049496908448F4947
:1053F00048615520FEF7B2FB8E4908620846006AF4
:10540000000208625620FEF7A9FB8A49096A08448F
:10541000884908620846006A000208625720FEF7C1
:105420009DFB8449096A0844824908620846006A6B
:10543000000208625820FEF791FB7E49096A084481
:105440007C4908625920FEF789FB7A49C862084600
:10545000C06A0002C8625A20FEF780FB7549C96A1B
:1054600008447449C8620846C06A0002C8625B20EA
:10547000FEF774FB6F49C96A08446E49C862084662
:10548000C06A0002C8625C20FEF768FB6949C96A0D
:1054900008446849C8625D20FEF760FB6349086202
:1054A0000846006A000208625E20FEF757FB5F496B
:1054B000096A08445D4908620846006A00020862F9
:1054C0005F20FEF74BFB5949096A084457490862B7
:1054D0000846006A000208626020FEF73FFB53495D
:1054E000096A0844514908626120FEF737FB4F49B9
:1054F000C8620846C06A0002C8626220FEF72EFB3E
:105500004A49C96A08444949C8620846C06A000253
:10551000C8626320FEF722FB4449C96A0844434934
:10552000C8620846C06A0002C8626420FEF716FB23
:105530003E49C96A08443D49C8626520FEF70EFB32
:105540003B4908716620FEF709FB39494871732011
:10555000FEF704FB384908640846006C0002086442
:105560007420FEF7FBFA3449096C08443249086498
:105570000846006C000208647520FEF7EFFA2E4919
:10558000096C08442C4908640846006C0002086451
:105590007620FEF7E3FA2849096C08442649086496
:1055A0006720FEF7DBFA214908630846006B00021A
:1055B00008636820FEF7D2FA1C49096B08441B49AE
:1055C00008630846006B000208636920FEF7C6FA0C
:1055D0001649096B0844154908630846006B000228
:1055E00008636A20FEF7BAFA1049096B08440F49AC
:1055F00008636B20FEF7B2FA0C4948630846406B1B
:10560000000248636C20FEF7A9FA0849496B084478
:10561000064948630846406B000248636D20FEF768
:105620009DFA0249496B0844004907E078020020CE
:1056300048030020E0020020580300204863084689
:10564000406B000248636E20FEF788FAFE49496B02
:105650000844FD4948636F20FEF780FAFA498863E1
:105660000846806B000288637020FEF777FAF649DF
:10567000896B0844F44988630846806B000288639C
:105680007120FEF76BFAF049896B0844EE49886394
:105690000846806B000288637220FEF75FFAEA49D1
:1056A000896B0844E84988637720FEF757FAE64992
:1056B000C8630846C06B0002C8637820FEF74EFA44
:1056C000E149C96B0844E049C8630846C06B000261
:1056D000C8637920FEF742FADB49C96B0844DA490E
:1056E000C8630846C06B0002C8637A20FEF736FA2A
:1056F000D549C96B0844D449C8637B20FEF72EFA0C
:10570000D14908640846006C000208647C20FEF75A
:1057100025FACD49096C0844CB4908640846006C59
:10572000000208647D20FEF719FAC749096C084495
:10573000C54908640846006C000208647E20FEF734
:105740000DFAC149096C0844BF4908647F20FEF77F
:1057500005FABD4948640846406C00024864802050
:10576000FEF7FCF9B849496C0844B7494864084653
:10577000406C000248648120FEF7F0F9B249496CA0
:105780000844B14948640846406C000248648220DD
:10579000FEF7E4F9AC49496C0844AB4948648320FE
:1057A000FEF7DCF9A84988640846806C000288642A
:1057B0008420FEF7D3F9A449896C0844A24988647F
:1057C0000846806C000288648520FEF7C7F99E4970
:1057D000896C08449C4988640846806C000288648F
:1057E0008620FEF7BBF99849896C0844964988647D
:1057F0008720FEF7B3F99449C8640846C06C0002DC
:10580000C8648820FEF7AAF98F49C96C08448E49FC
:10581000C8640846C06C0002C8648920FEF79EF97F
:105820008949C96C08448849C8640846C06C0002AC
:10583000C8648A20FEF792F98349C96C08448249FA
:10584000C8648B20FEF78AF9804908630846006B1C
:10585000000208638C20FEF781F97C49096B08443B
:105860007A4908630846006B000208638D20FEF742
:1058700075F97649096B0844744908630846006B5A
:10588000000208638E20FEF769F97049096B08442D
:105890006E4908638F20FEF761F96C49486308463A
:1058A000406B000248639020FEF758F96749496B46
:1058B0000844664948630846406B000248639120EB
:1058C000FEF74CF96149496B084460494863084652
:1058D000406B000248639220FEF740F95B49496B38
:1058E00008445A4948639320FEF738F957498863BA
:1058F0000846806B000288639420FEF72FF9534915
:10590000896B0844514988630846806B00028863AC
:105910009520FEF723F94D49896B08444B4988636C
:105920000846806B000288639620FEF717F9474906
:10593000896B0844454988639720FEF70FF943496E
:10594000C8630846C06B0002C8639820FEF706F9DA
:105950003E49C96B08443D49C8630846C06B000214
:10596000C8639920FEF7FAF83849C96B08443749EB
:10597000C8630846C06B0002C8639A20FEF7EEF8C1
:105980003249C96B08443149C8639B20FEF7E6F8E9
:105990002E4908640846006C000208649C20FEF74B
:1059A000DDF82A49096C0844284908640846006C57
:1059B000000208649D20FEF7D1F82449096C0844D0
:1059C000224908640846006C000208649E20FEF725
:1059D000C5F81E49096C08441C4908649F20FEF75D
:1059E000BDF81A4948640846406C00024864A0208B
:1059F000FEF7B4F81549496C084414494864084650
:105A0000406C00024864A120FEF7A8F80F49496CD9
:105A100008440E4948640846406C00024864A220CD
:105A2000FEF79CF80949496C084408494864A320DA
:105A3000FEF794F8054988640846806C0002886483
:105A4000A420FEF78BF803E078020020E00200209B
:105A5000FE49896C0844FD4988640846806C000250
:105A60008864A520FEF77AF8F849896C0844F7495C
:105A700088640846806C00028864A620FEF76EF8F1
:105A8000F249896C0844F1498864A720FEF766F85A
:105A9000EE49C8640846C06C0002C864A820FEF73E
:105AA0005DF8EA49C96C0844E849C8640846C06C16
:105AB0000002C864A920FEF751F8E449C96C084403
:105AC000E249C8640846C06C0002C864AA20FEF718
:105AD00045F8DE49C96C0844DC49C864AF20FEF7CC
